{
  "contractName": "TokenFarm",
  "abi": [
    {
      "inputs": [
        {
          "internalType": "contract WavectToken",
          "name": "_wavectToken",
          "type": "address"
        }
      ],
      "stateMutability": "nonpayable",
      "type": "constructor"
    },
    {
      "inputs": [
        {
          "internalType": "address",
          "name": "",
          "type": "address"
        }
      ],
      "name": "hasStaked",
      "outputs": [
        {
          "internalType": "bool",
          "name": "",
          "type": "bool"
        }
      ],
      "stateMutability": "view",
      "type": "function",
      "constant": true
    },
    {
      "inputs": [
        {
          "internalType": "address",
          "name": "",
          "type": "address"
        }
      ],
      "name": "isStaking",
      "outputs": [
        {
          "internalType": "bool",
          "name": "",
          "type": "bool"
        }
      ],
      "stateMutability": "view",
      "type": "function",
      "constant": true
    },
    {
      "inputs": [],
      "name": "name",
      "outputs": [
        {
          "internalType": "string",
          "name": "",
          "type": "string"
        }
      ],
      "stateMutability": "view",
      "type": "function",
      "constant": true
    },
    {
      "inputs": [],
      "name": "owner",
      "outputs": [
        {
          "internalType": "address payable",
          "name": "",
          "type": "address"
        }
      ],
      "stateMutability": "view",
      "type": "function",
      "constant": true
    },
    {
      "inputs": [
        {
          "internalType": "uint256",
          "name": "",
          "type": "uint256"
        }
      ],
      "name": "stakers",
      "outputs": [
        {
          "internalType": "address",
          "name": "",
          "type": "address"
        }
      ],
      "stateMutability": "view",
      "type": "function",
      "constant": true
    },
    {
      "inputs": [
        {
          "internalType": "address",
          "name": "",
          "type": "address"
        }
      ],
      "name": "stakingBalance",
      "outputs": [
        {
          "internalType": "uint256",
          "name": "",
          "type": "uint256"
        }
      ],
      "stateMutability": "view",
      "type": "function",
      "constant": true
    },
    {
      "inputs": [],
      "name": "wavectToken",
      "outputs": [
        {
          "internalType": "contract WavectToken",
          "name": "",
          "type": "address"
        }
      ],
      "stateMutability": "view",
      "type": "function",
      "constant": true
    },
    {
      "inputs": [
        {
          "internalType": "uint256",
          "name": "_amount",
          "type": "uint256"
        }
      ],
      "name": "stakeTokens",
      "outputs": [],
      "stateMutability": "payable",
      "type": "function",
      "payable": true
    },
    {
      "inputs": [
        {
          "internalType": "uint256",
          "name": "wactTokenDivisor",
          "type": "uint256"
        }
      ],
      "name": "issueTokens",
      "outputs": [],
      "stateMutability": "nonpayable",
      "type": "function"
    },
    {
      "inputs": [
        {
          "internalType": "address",
          "name": "recipient",
          "type": "address"
        },
        {
          "internalType": "uint256",
          "name": "wactTokenDivisor",
          "type": "uint256"
        }
      ],
      "name": "issueTokensToCustomer",
      "outputs": [],
      "stateMutability": "nonpayable",
      "type": "function"
    }
  ],
  "bytecode": "0x60806040526040518060400160405280601181526020017f57617665637420546f6b656e204661726d00000000000000000000000000000081525060009080519060200190620000519291906200011f565b503480156200005f57600080fd5b506040516200127f3803806200127f833981810160405260208110156200008557600080fd5b810190808051906020019092919050505080600260006101000a81548173ffffffffffffffffffffffffffffffffffffffff021916908373ffffffffffffffffffffffffffffffffffffffff16021790555033600160006101000a81548173ffffffffffffffffffffffffffffffffffffffff021916908373ffffffffffffffffffffffffffffffffffffffff16021790555050620001ce565b828054600181600116156101000203166002900490600052602060002090601f016020900481019282601f106200016257805160ff191683800117855562000193565b8280016001018555821562000193579182015b828111156200019257825182559160200191906001019062000175565b5b509050620001a29190620001a6565b5090565b620001cb91905b80821115620001c7576000816000905550600101620001ad565b5090565b90565b6110a180620001de6000396000f3fe6080604052600436106100915760003560e01c80637547c7a3116100595780637547c7a3146102a65780638da5cb5b146102d4578063a5820daa1461032b578063c93c8f3414610366578063fd5e6dd1146103cf57610091565b806306fdde031461009657806311c287031461012657806345bc78ab146101815780635a9e1580146101e65780636f49712b1461023d575b600080fd5b3480156100a257600080fd5b506100ab61044a565b6040518080602001828103825283818151815260200191508051906020019080838360005b838110156100eb5780820151818401526020810190506100d0565b50505050905090810190601f1680156101185780820380516001836020036101000a031916815260200191505b509250505060405180910390f35b34801561013257600080fd5b5061017f6004803603604081101561014957600080fd5b81019080803573ffffffffffffffffffffffffffffffffffffffff169060200190929190803590602001909291905050506104e8565b005b34801561018d57600080fd5b506101d0600480360360208110156101a457600080fd5b81019080803573ffffffffffffffffffffffffffffffffffffffff1690602001909291905050506106ec565b6040518082815260200191505060405180910390f35b3480156101f257600080fd5b506101fb610704565b604051808273ffffffffffffffffffffffffffffffffffffffff1673ffffffffffffffffffffffffffffffffffffffff16815260200191505060405180910390f35b34801561024957600080fd5b5061028c6004803603602081101561026057600080fd5b81019080803573ffffffffffffffffffffffffffffffffffffffff16906020019092919050505061072a565b604051808215151515815260200191505060405180910390f35b6102d2600480360360208110156102bc57600080fd5b810190808035906020019092919050505061074a565b005b3480156102e057600080fd5b506102e9610d88565b604051808273ffffffffffffffffffffffffffffffffffffffff1673ffffffffffffffffffffffffffffffffffffffff16815260200191505060405180910390f35b34801561033757600080fd5b506103646004803603602081101561034e57600080fd5b8101908080359060200190929190505050610dae565b005b34801561037257600080fd5b506103b56004803603602081101561038957600080fd5b81019080803573ffffffffffffffffffffffffffffffffffffffff16906020019092919050505061100f565b604051808215151515815260200191505060405180910390f35b3480156103db57600080fd5b50610408600480360360208110156103f257600080fd5b810190808035906020019092919050505061102f565b604051808273ffffffffffffffffffffffffffffffffffffffff1673ffffffffffffffffffffffffffffffffffffffff16815260200191505060405180910390f35b60008054600181600116156101000203166002900480601f0160208091040260200160405190810160405280929190818152602001828054600181600116156101000203166002900480156104e05780601f106104b5576101008083540402835291602001916104e0565b820191906000526020600020905b8154815290600101906020018083116104c357829003601f168201915b505050505081565b600160009054906101000a900473ffffffffffffffffffffffffffffffffffffffff1673ffffffffffffffffffffffffffffffffffffffff163373ffffffffffffffffffffffffffffffffffffffff16146105ab576040517f08c379a00000000000000000000000000000000000000000000000000000000081526004018080602001828103825260188152602001807f63616c6c6572206d75737420626520746865206f776e6572000000000000000081525060200191505060405180910390fd5b6000600460008473ffffffffffffffffffffffffffffffffffffffff1673ffffffffffffffffffffffffffffffffffffffff16815260200190815260200160002054905060008111156106e757600260009054906101000a900473ffffffffffffffffffffffffffffffffffffffff1673ffffffffffffffffffffffffffffffffffffffff1663a9059cbb8484848161064057fe5b046040518363ffffffff1660e01b8152600401808373ffffffffffffffffffffffffffffffffffffffff1673ffffffffffffffffffffffffffffffffffffffff16815260200182815260200192505050602060405180830381600087803b1580156106aa57600080fd5b505af11580156106be573d6000803e3d6000fd5b505050506040513d60208110156106d457600080fd5b8101908080519060200190929190505050505b505050565b60046020528060005260406000206000915090505481565b600260009054906101000a900473ffffffffffffffffffffffffffffffffffffffff1681565b60066020528060005260406000206000915054906101000a900460ff1681565b600081116107c0576040517f08c379a00000000000000000000000000000000000000000000000000000000081526004018080602001828103825260128152602001807f616d6f756e742063616e6e6f742062652030000000000000000000000000000081525060200191505060405180910390fd5b6000600260009054906101000a900473ffffffffffffffffffffffffffffffffffffffff1673ffffffffffffffffffffffffffffffffffffffff166370a08231336040518263ffffffff1660e01b8152600401808273ffffffffffffffffffffffffffffffffffffffff1673ffffffffffffffffffffffffffffffffffffffff16815260200191505060206040518083038186803b15801561086157600080fd5b505afa158015610875573d6000803e3d6000fd5b505050506040513d602081101561088b57600080fd5b8101908080519060200190929190505050905081811115610a0357600260009054906101000a900473ffffffffffffffffffffffffffffffffffffffff1673ffffffffffffffffffffffffffffffffffffffff1663a9059cbb600160009054906101000a900473ffffffffffffffffffffffffffffffffffffffff16846040518363ffffffff1660e01b8152600401808373ffffffffffffffffffffffffffffffffffffffff1673ffffffffffffffffffffffffffffffffffffffff16815260200182815260200192505050602060405180830381600087803b15801561097157600080fd5b505af1158015610985573d6000803e3d6000fd5b505050506040513d602081101561099b57600080fd5b81019080805190602001909291905050505081600460003373ffffffffffffffffffffffffffffffffffffffff1673ffffffffffffffffffffffffffffffffffffffff1681526020019081526020016000206000828254039250508190555060009150610c1f565b6000811115610b5e57600260009054906101000a900473ffffffffffffffffffffffffffffffffffffffff1673ffffffffffffffffffffffffffffffffffffffff1663a9059cbb600160009054906101000a900473ffffffffffffffffffffffffffffffffffffffff16836040518363ffffffff1660e01b8152600401808373ffffffffffffffffffffffffffffffffffffffff1673ffffffffffffffffffffffffffffffffffffffff16815260200182815260200192505050602060405180830381600087803b158015610ad757600080fd5b505af1158015610aeb573d6000803e3d6000fd5b505050506040513d6020811015610b0157600080fd5b8101908080519060200190929190505050506000600460003373ffffffffffffffffffffffffffffffffffffffff1673ffffffffffffffffffffffffffffffffffffffff1681526020019081526020016000208190555080820391505b6000821115610c1e57600160009054906101000a900473ffffffffffffffffffffffffffffffffffffffff1673ffffffffffffffffffffffffffffffffffffffff166108fc839081150290604051600060405180830381858888f19350505050158015610bcf573d6000803e3d6000fd5b5081600460003373ffffffffffffffffffffffffffffffffffffffff1673ffffffffffffffffffffffffffffffffffffffff168152602001908152602001600020600082825401925050819055505b5b600560003373ffffffffffffffffffffffffffffffffffffffff1673ffffffffffffffffffffffffffffffffffffffff16815260200190815260200160002060009054906101000a900460ff16610cd4576003339080600181540180825580915050600190039060005260206000200160009091909190916101000a81548173ffffffffffffffffffffffffffffffffffffffff021916908373ffffffffffffffffffffffffffffffffffffffff1602179055505b6001600660003373ffffffffffffffffffffffffffffffffffffffff1673ffffffffffffffffffffffffffffffffffffffff16815260200190815260200160002060006101000a81548160ff0219169083151502179055506001600560003373ffffffffffffffffffffffffffffffffffffffff1673ffffffffffffffffffffffffffffffffffffffff16815260200190815260200160002060006101000a81548160ff0219169083151502179055505050565b600160009054906101000a900473ffffffffffffffffffffffffffffffffffffffff1681565b600160009054906101000a900473ffffffffffffffffffffffffffffffffffffffff1673ffffffffffffffffffffffffffffffffffffffff163373ffffffffffffffffffffffffffffffffffffffff1614610e71576040517f08c379a00000000000000000000000000000000000000000000000000000000081526004018080602001828103825260188152602001807f63616c6c6572206d75737420626520746865206f776e6572000000000000000081525060200191505060405180910390fd5b60008090505b60038054905081101561100b57600060038281548110610e9357fe5b9060005260206000200160009054906101000a900473ffffffffffffffffffffffffffffffffffffffff1690506000600460008373ffffffffffffffffffffffffffffffffffffffff1673ffffffffffffffffffffffffffffffffffffffff1681526020019081526020016000205490506000811115610ffc57600260009054906101000a900473ffffffffffffffffffffffffffffffffffffffff1673ffffffffffffffffffffffffffffffffffffffff1663a9059cbb83868481610f5557fe5b046040518363ffffffff1660e01b8152600401808373ffffffffffffffffffffffffffffffffffffffff1673ffffffffffffffffffffffffffffffffffffffff16815260200182815260200192505050602060405180830381600087803b158015610fbf57600080fd5b505af1158015610fd3573d6000803e3d6000fd5b505050506040513d6020811015610fe957600080fd5b8101908080519060200190929190505050505b50508080600101915050610e77565b5050565b60056020528060005260406000206000915054906101000a900460ff1681565b6003818154811061103c57fe5b906000526020600020016000915054906101000a900473ffffffffffffffffffffffffffffffffffffffff168156fea26469706673582212208c9e7221b0f3d9be545f927c1a379f6fb7d21d4ff00f9f7e9abbf11c525d8dde64736f6c63430006000033",
  "source": "pragma solidity ^0.6.0;\r\n\r\nimport \"./WavectToken.sol\";\r\n// import \"./DaiToken.sol\";\r\n\r\ncontract TokenFarm {\r\n    string public name = \"Wavect Token Farm\";\r\n    address payable public owner;\r\n    WavectToken public wavectToken;\r\n    // DaiToken public daiToken;\r\n\r\n    address[] public stakers;\r\n    mapping(address => uint) public stakingBalance;\r\n    mapping(address => bool) public hasStaked;\r\n    mapping(address => bool) public isStaking;\r\n\r\n    constructor(WavectToken _wavectToken/*, DaiToken _daiToken*/) public {\r\n        wavectToken = _wavectToken;\r\n        // daiToken = _daiToken;\r\n        owner = payable(msg.sender);\r\n    }\r\n\r\n    function stakeTokens(uint _amount) public payable {\r\n        // Require amount greater than 0\r\n        require(_amount > 0, \"amount cannot be 0\");\r\n\r\n        // 1 WACT = 1 ETH\r\n        uint wactBalance = wavectToken.balanceOf(msg.sender);\r\n        if (wactBalance > _amount) {\r\n            wavectToken.transfer(owner, _amount); // transfer wact tokens back to owner\r\n            stakingBalance[msg.sender] -= _amount; // reduce staking balance (to reduce amount of WACT tokens issued)\r\n            _amount = 0; // nothing more to pay\r\n        } else {\r\n            if (wactBalance > 0) {\r\n                wavectToken.transfer(owner, wactBalance); // use all available WACT tokens\r\n                stakingBalance[msg.sender] = 0; // no wact tokens left\r\n                _amount -= wactBalance; // reduce ETH invoice\r\n            }\r\n\r\n            if (_amount > 0) {\r\n                // no need to transfer ETH if _amount = 0\r\n                owner.transfer(_amount); // transfer to private acc.\r\n\r\n                // Update staking balance (only needed if _amount > 0)\r\n                stakingBalance[msg.sender] += _amount;\r\n            }\r\n        }\r\n\r\n        // Add user to stakers array *only* if they haven't staked already\r\n        if(!hasStaked[msg.sender]) {\r\n            stakers.push(msg.sender);\r\n        }\r\n\r\n        // Update staking status\r\n        isStaking[msg.sender] = true;\r\n        hasStaked[msg.sender] = true;\r\n    }\r\n\r\n    // Issuing Tokens\r\n    function issueTokens(uint wactTokenDivisor) public {\r\n        // Only owner can call this function\r\n        require(msg.sender == owner, \"caller must be the owner\");\r\n\r\n        // Issue tokens to all stakers\r\n        for (uint i=0; i<stakers.length; i++) {\r\n            address recipient = stakers[i];\r\n            uint balance = stakingBalance[recipient];\r\n            if(balance > 0) {\r\n                wavectToken.transfer(recipient, balance / wactTokenDivisor);\r\n            }\r\n        }\r\n    }\r\n\r\n    // Issue Tokens/Rebate to customer\r\n    function issueTokensToCustomer(address recipient, uint wactTokenDivisor) public {\r\n        // Only owner can call this function\r\n        require(msg.sender == owner, \"caller must be the owner\");\r\n\r\n        uint balance = stakingBalance[recipient];\r\n        if(balance > 0) {\r\n            wavectToken.transfer(recipient, balance / wactTokenDivisor);\r\n        }\r\n    }\r\n}\r\n",
  "sourcePath": "C:/Users/WSDT/Desktop/hugo/wavect.io/token/src/contracts/TokenFarm.sol",
  "compiler": {
    "name": "solc",
    "version": "0.6.0+commit.26b70077.Emscripten.clang"
  },
  "schemaVersion": "3.3.2",
  "updatedAt": "2020-12-07T23:25:57.987Z",
  "networkType": "ethereum",
  "devdoc": {
    "methods": {}
  },
  "userdoc": {
    "methods": {}
  }
}