{
  "contractName": "TokenFarm",
  "abi": [
    {
      "inputs": [
        {
          "internalType": "contract WavectToken",
          "name": "_wavectToken",
          "type": "address"
        }
      ],
      "stateMutability": "nonpayable",
      "type": "constructor"
    },
    {
      "inputs": [
        {
          "internalType": "address",
          "name": "",
          "type": "address"
        }
      ],
      "name": "hasStaked",
      "outputs": [
        {
          "internalType": "bool",
          "name": "",
          "type": "bool"
        }
      ],
      "stateMutability": "view",
      "type": "function",
      "constant": true
    },
    {
      "inputs": [
        {
          "internalType": "address",
          "name": "",
          "type": "address"
        }
      ],
      "name": "isStaking",
      "outputs": [
        {
          "internalType": "bool",
          "name": "",
          "type": "bool"
        }
      ],
      "stateMutability": "view",
      "type": "function",
      "constant": true
    },
    {
      "inputs": [],
      "name": "name",
      "outputs": [
        {
          "internalType": "string",
          "name": "",
          "type": "string"
        }
      ],
      "stateMutability": "view",
      "type": "function",
      "constant": true
    },
    {
      "inputs": [],
      "name": "owner",
      "outputs": [
        {
          "internalType": "address payable",
          "name": "",
          "type": "address"
        }
      ],
      "stateMutability": "view",
      "type": "function",
      "constant": true
    },
    {
      "inputs": [
        {
          "internalType": "uint256",
          "name": "",
          "type": "uint256"
        }
      ],
      "name": "stakers",
      "outputs": [
        {
          "internalType": "address",
          "name": "",
          "type": "address"
        }
      ],
      "stateMutability": "view",
      "type": "function",
      "constant": true
    },
    {
      "inputs": [
        {
          "internalType": "address",
          "name": "",
          "type": "address"
        }
      ],
      "name": "stakingBalance",
      "outputs": [
        {
          "internalType": "uint256",
          "name": "",
          "type": "uint256"
        }
      ],
      "stateMutability": "view",
      "type": "function",
      "constant": true
    },
    {
      "inputs": [],
      "name": "wavectToken",
      "outputs": [
        {
          "internalType": "contract WavectToken",
          "name": "",
          "type": "address"
        }
      ],
      "stateMutability": "view",
      "type": "function",
      "constant": true
    },
    {
      "inputs": [
        {
          "internalType": "uint256",
          "name": "_amount",
          "type": "uint256"
        }
      ],
      "name": "stakeTokens",
      "outputs": [],
      "stateMutability": "payable",
      "type": "function",
      "payable": true
    },
    {
      "inputs": [],
      "name": "issueTokens",
      "outputs": [],
      "stateMutability": "nonpayable",
      "type": "function"
    },
    {
      "inputs": [
        {
          "internalType": "address",
          "name": "recipient",
          "type": "address"
        }
      ],
      "name": "issueTokensToCustomer",
      "outputs": [],
      "stateMutability": "nonpayable",
      "type": "function"
    }
  ],
  "bytecode": "0x60806040526040518060400160405280601181526020017f57617665637420546f6b656e204661726d0000000000000000000000000000008152506000908051906020019061004f929190610118565b5034801561005c57600080fd5b50604051610eb9380380610eb98339818101604052602081101561007f57600080fd5b810190808051906020019092919050505080600260006101000a81548173ffffffffffffffffffffffffffffffffffffffff021916908373ffffffffffffffffffffffffffffffffffffffff16021790555033600160006101000a81548173ffffffffffffffffffffffffffffffffffffffff021916908373ffffffffffffffffffffffffffffffffffffffff160217905550506101bd565b828054600181600116156101000203166002900490600052602060002090601f016020900481019282601f1061015957805160ff1916838001178555610187565b82800160010185558215610187579182015b8281111561018657825182559160200191906001019061016b565b5b5090506101949190610198565b5090565b6101ba91905b808211156101b657600081600090555060010161019e565b5090565b90565b610ced806101cc6000396000f3fe6080604052600436106100915760003560e01c80636f49712b116100595780636f49712b1461024a5780637547c7a3146102b35780638da5cb5b146102e1578063c93c8f3414610338578063fd5e6dd1146103a157610091565b806306fdde031461009657806326ba289a1461012657806345bc78ab146101775780635a9e1580146101dc57806360ab585214610233575b600080fd5b3480156100a257600080fd5b506100ab61041c565b6040518080602001828103825283818151815260200191508051906020019080838360005b838110156100eb5780820151818401526020810190506100d0565b50505050905090810190601f1680156101185780820380516001836020036101000a031916815260200191505b509250505060405180910390f35b34801561013257600080fd5b506101756004803603602081101561014957600080fd5b81019080803573ffffffffffffffffffffffffffffffffffffffff1690602001909291905050506104ba565b005b34801561018357600080fd5b506101c66004803603602081101561019a57600080fd5b81019080803573ffffffffffffffffffffffffffffffffffffffff1690602001909291905050506106b4565b6040518082815260200191505060405180910390f35b3480156101e857600080fd5b506101f16106cc565b604051808273ffffffffffffffffffffffffffffffffffffffff1673ffffffffffffffffffffffffffffffffffffffff16815260200191505060405180910390f35b34801561023f57600080fd5b506102486106f2565b005b34801561025657600080fd5b506102996004803603602081101561026d57600080fd5b81019080803573ffffffffffffffffffffffffffffffffffffffff169060200190929190505050610949565b604051808215151515815260200191505060405180910390f35b6102df600480360360208110156102c957600080fd5b8101908080359060200190929190505050610969565b005b3480156102ed57600080fd5b506102f6610c35565b604051808273ffffffffffffffffffffffffffffffffffffffff1673ffffffffffffffffffffffffffffffffffffffff16815260200191505060405180910390f35b34801561034457600080fd5b506103876004803603602081101561035b57600080fd5b81019080803573ffffffffffffffffffffffffffffffffffffffff169060200190929190505050610c5b565b604051808215151515815260200191505060405180910390f35b3480156103ad57600080fd5b506103da600480360360208110156103c457600080fd5b8101908080359060200190929190505050610c7b565b604051808273ffffffffffffffffffffffffffffffffffffffff1673ffffffffffffffffffffffffffffffffffffffff16815260200191505060405180910390f35b60008054600181600116156101000203166002900480601f0160208091040260200160405190810160405280929190818152602001828054600181600116156101000203166002900480156104b25780601f10610487576101008083540402835291602001916104b2565b820191906000526020600020905b81548152906001019060200180831161049557829003601f168201915b505050505081565b600160009054906101000a900473ffffffffffffffffffffffffffffffffffffffff1673ffffffffffffffffffffffffffffffffffffffff163373ffffffffffffffffffffffffffffffffffffffff161461057d576040517f08c379a00000000000000000000000000000000000000000000000000000000081526004018080602001828103825260188152602001807f63616c6c6572206d75737420626520746865206f776e6572000000000000000081525060200191505060405180910390fd5b6000600460008373ffffffffffffffffffffffffffffffffffffffff1673ffffffffffffffffffffffffffffffffffffffff16815260200190815260200160002054905060008111156106b057600260009054906101000a900473ffffffffffffffffffffffffffffffffffffffff1673ffffffffffffffffffffffffffffffffffffffff1663a9059cbb83836040518363ffffffff1660e01b8152600401808373ffffffffffffffffffffffffffffffffffffffff1673ffffffffffffffffffffffffffffffffffffffff16815260200182815260200192505050602060405180830381600087803b15801561067357600080fd5b505af1158015610687573d6000803e3d6000fd5b505050506040513d602081101561069d57600080fd5b8101908080519060200190929190505050505b5050565b60046020528060005260406000206000915090505481565b600260009054906101000a900473ffffffffffffffffffffffffffffffffffffffff1681565b600160009054906101000a900473ffffffffffffffffffffffffffffffffffffffff1673ffffffffffffffffffffffffffffffffffffffff163373ffffffffffffffffffffffffffffffffffffffff16146107b5576040517f08c379a00000000000000000000000000000000000000000000000000000000081526004018080602001828103825260188152602001807f63616c6c6572206d75737420626520746865206f776e6572000000000000000081525060200191505060405180910390fd5b60008090505b600380549050811015610946576000600382815481106107d757fe5b9060005260206000200160009054906101000a900473ffffffffffffffffffffffffffffffffffffffff1690506000600460008373ffffffffffffffffffffffffffffffffffffffff1673ffffffffffffffffffffffffffffffffffffffff168152602001908152602001600020549050600081111561093757600260009054906101000a900473ffffffffffffffffffffffffffffffffffffffff1673ffffffffffffffffffffffffffffffffffffffff1663a9059cbb83836040518363ffffffff1660e01b8152600401808373ffffffffffffffffffffffffffffffffffffffff1673ffffffffffffffffffffffffffffffffffffffff16815260200182815260200192505050602060405180830381600087803b1580156108fa57600080fd5b505af115801561090e573d6000803e3d6000fd5b505050506040513d602081101561092457600080fd5b8101908080519060200190929190505050505b505080806001019150506107bb565b50565b60066020528060005260406000206000915054906101000a900460ff1681565b600081116109df576040517f08c379a00000000000000000000000000000000000000000000000000000000081526004018080602001828103825260128152602001807f616d6f756e742063616e6e6f742062652030000000000000000000000000000081525060200191505060405180910390fd5b600160009054906101000a900473ffffffffffffffffffffffffffffffffffffffff1673ffffffffffffffffffffffffffffffffffffffff166108fc829081150290604051600060405180830381858888f19350505050158015610a47573d6000803e3d6000fd5b5080600460003373ffffffffffffffffffffffffffffffffffffffff1673ffffffffffffffffffffffffffffffffffffffff1681526020019081526020016000205401600460003373ffffffffffffffffffffffffffffffffffffffff1673ffffffffffffffffffffffffffffffffffffffff16815260200190815260200160002081905550600560003373ffffffffffffffffffffffffffffffffffffffff1673ffffffffffffffffffffffffffffffffffffffff16815260200190815260200160002060009054906101000a900460ff16610b82576003339080600181540180825580915050600190039060005260206000200160009091909190916101000a81548173ffffffffffffffffffffffffffffffffffffffff021916908373ffffffffffffffffffffffffffffffffffffffff1602179055505b6001600660003373ffffffffffffffffffffffffffffffffffffffff1673ffffffffffffffffffffffffffffffffffffffff16815260200190815260200160002060006101000a81548160ff0219169083151502179055506001600560003373ffffffffffffffffffffffffffffffffffffffff1673ffffffffffffffffffffffffffffffffffffffff16815260200190815260200160002060006101000a81548160ff02191690831515021790555050565b600160009054906101000a900473ffffffffffffffffffffffffffffffffffffffff1681565b60056020528060005260406000206000915054906101000a900460ff1681565b60038181548110610c8857fe5b906000526020600020016000915054906101000a900473ffffffffffffffffffffffffffffffffffffffff168156fea2646970667358221220f720dd576b9ecbb75e3e44736f6212df33dac5840f3b0a5a636caabed95251f164736f6c63430006000033",
  "source": "pragma solidity ^0.6.0;\r\n\r\nimport \"./WavectToken.sol\";\r\n// import \"./DaiToken.sol\";\r\n\r\ncontract TokenFarm {\r\n    string public name = \"Wavect Token Farm\";\r\n    address payable public owner;\r\n    WavectToken public wavectToken;\r\n    // DaiToken public daiToken;\r\n\r\n    address[] public stakers;\r\n    mapping(address => uint) public stakingBalance;\r\n    mapping(address => bool) public hasStaked;\r\n    mapping(address => bool) public isStaking;\r\n\r\n    constructor(WavectToken _wavectToken/*, DaiToken _daiToken*/) public {\r\n        wavectToken = _wavectToken;\r\n        // daiToken = _daiToken;\r\n        owner = payable(msg.sender);\r\n    }\r\n\r\n    function stakeTokens(uint _amount) public payable {\r\n        // Require amount greater than 0\r\n        require(_amount > 0, \"amount cannot be 0\");\r\n\r\n        // Trasnfer Mock Dai tokens to this contract for staking\r\n        // daiToken.transferFrom(msg.sender, address(this), _amount);\r\n        // daiToken.transferFrom(msg.sender, address(this), _amount);\r\n        // owner.transfer(address(this).balance); // tansfer to private acc.\r\n        // require(address(this).balance > 0, \"balance too low\");\r\n        owner.transfer(_amount); // transfer to private acc.\r\n        // bool res = owner.call.value(_amount).gas(20317)();\r\n        // require(res, \"ETH not transferred to Wavect\");\r\n\r\n        // Update staking balance\r\n        stakingBalance[msg.sender] = stakingBalance[msg.sender] + _amount;\r\n\r\n        // Add user to stakers array *only* if they haven't staked already\r\n        if(!hasStaked[msg.sender]) {\r\n            stakers.push(msg.sender);\r\n        }\r\n\r\n        // Update staking status\r\n        isStaking[msg.sender] = true;\r\n        hasStaked[msg.sender] = true;\r\n    }\r\n\r\n    // Unstaking Tokens (Withdraw)\r\n    // function unstakeTokens() public {\r\n    //     // Fetch staking balance\r\n    //     uint balance = stakingBalance[msg.sender];\r\n\r\n    //     // Require amount greater than 0\r\n    //     require(balance > 0, \"staking balance cannot be 0\");\r\n\r\n    //     // Transfer Mock Dai tokens to this contract for staking\r\n    //     daiToken.transfer(msg.sender, balance);\r\n\r\n    //     // Reset staking balance\r\n    //     stakingBalance[msg.sender] = 0;\r\n\r\n    //     // Update staking status\r\n    //     isStaking[msg.sender] = false;\r\n    // }\r\n\r\n    // Issuing Tokens\r\n    function issueTokens() public {\r\n        // Only owner can call this function\r\n        require(msg.sender == owner, \"caller must be the owner\");\r\n\r\n        // Issue tokens to all stakers\r\n        for (uint i=0; i<stakers.length; i++) {\r\n            address recipient = stakers[i];\r\n            uint balance = stakingBalance[recipient];\r\n            if(balance > 0) {\r\n                wavectToken.transfer(recipient, balance);\r\n            }\r\n        }\r\n    }\r\n\r\n    // Issue Tokens/Rebate to customer\r\n    function issueTokensToCustomer(address recipient) public {\r\n        // Only owner can call this function\r\n        require(msg.sender == owner, \"caller must be the owner\");\r\n\r\n        uint balance = stakingBalance[recipient];\r\n        if(balance > 0) {\r\n            wavectToken.transfer(recipient, balance);\r\n        }\r\n    }\r\n}\r\n",
  "sourcePath": "C:/Users/WSDT/Desktop/hugo/wavect.io/token/src/contracts/TokenFarm.sol",
  "compiler": {
    "name": "solc",
    "version": "0.6.0+commit.26b70077.Emscripten.clang"
  },
  "schemaVersion": "3.3.2",
  "updatedAt": "2020-12-07T17:07:37.237Z",
  "networkType": "ethereum",
  "devdoc": {
    "methods": {}
  },
  "userdoc": {
    "methods": {}
  }
}