{
  "contractName": "WavectToken",
  "abi": [
    {
      "inputs": [
        {
          "internalType": "string",
          "name": "name",
          "type": "string"
        },
        {
          "internalType": "string",
          "name": "symbol",
          "type": "string"
        }
      ],
      "stateMutability": "nonpayable",
      "type": "constructor"
    },
    {
      "anonymous": false,
      "inputs": [
        {
          "indexed": true,
          "internalType": "address",
          "name": "owner",
          "type": "address"
        },
        {
          "indexed": true,
          "internalType": "address",
          "name": "spender",
          "type": "address"
        },
        {
          "indexed": false,
          "internalType": "uint256",
          "name": "value",
          "type": "uint256"
        }
      ],
      "name": "Approval",
      "type": "event"
    },
    {
      "anonymous": false,
      "inputs": [
        {
          "indexed": true,
          "internalType": "address",
          "name": "from",
          "type": "address"
        },
        {
          "indexed": true,
          "internalType": "address",
          "name": "to",
          "type": "address"
        },
        {
          "indexed": false,
          "internalType": "uint256",
          "name": "value",
          "type": "uint256"
        }
      ],
      "name": "Transfer",
      "type": "event"
    },
    {
      "inputs": [
        {
          "internalType": "address",
          "name": "owner",
          "type": "address"
        },
        {
          "internalType": "address",
          "name": "spender",
          "type": "address"
        }
      ],
      "name": "allowance",
      "outputs": [
        {
          "internalType": "uint256",
          "name": "",
          "type": "uint256"
        }
      ],
      "stateMutability": "view",
      "type": "function"
    },
    {
      "inputs": [
        {
          "internalType": "address",
          "name": "spender",
          "type": "address"
        },
        {
          "internalType": "uint256",
          "name": "amount",
          "type": "uint256"
        }
      ],
      "name": "approve",
      "outputs": [
        {
          "internalType": "bool",
          "name": "",
          "type": "bool"
        }
      ],
      "stateMutability": "nonpayable",
      "type": "function"
    },
    {
      "inputs": [
        {
          "internalType": "address",
          "name": "account",
          "type": "address"
        }
      ],
      "name": "balanceOf",
      "outputs": [
        {
          "internalType": "uint256",
          "name": "",
          "type": "uint256"
        }
      ],
      "stateMutability": "view",
      "type": "function"
    },
    {
      "inputs": [],
      "name": "decimals",
      "outputs": [
        {
          "internalType": "uint8",
          "name": "",
          "type": "uint8"
        }
      ],
      "stateMutability": "view",
      "type": "function"
    },
    {
      "inputs": [
        {
          "internalType": "address",
          "name": "spender",
          "type": "address"
        },
        {
          "internalType": "uint256",
          "name": "subtractedValue",
          "type": "uint256"
        }
      ],
      "name": "decreaseAllowance",
      "outputs": [
        {
          "internalType": "bool",
          "name": "",
          "type": "bool"
        }
      ],
      "stateMutability": "nonpayable",
      "type": "function"
    },
    {
      "inputs": [
        {
          "internalType": "address",
          "name": "spender",
          "type": "address"
        },
        {
          "internalType": "uint256",
          "name": "addedValue",
          "type": "uint256"
        }
      ],
      "name": "increaseAllowance",
      "outputs": [
        {
          "internalType": "bool",
          "name": "",
          "type": "bool"
        }
      ],
      "stateMutability": "nonpayable",
      "type": "function"
    },
    {
      "inputs": [],
      "name": "name",
      "outputs": [
        {
          "internalType": "string",
          "name": "",
          "type": "string"
        }
      ],
      "stateMutability": "view",
      "type": "function"
    },
    {
      "inputs": [],
      "name": "symbol",
      "outputs": [
        {
          "internalType": "string",
          "name": "",
          "type": "string"
        }
      ],
      "stateMutability": "view",
      "type": "function"
    },
    {
      "inputs": [],
      "name": "totalSupply",
      "outputs": [
        {
          "internalType": "uint256",
          "name": "",
          "type": "uint256"
        }
      ],
      "stateMutability": "view",
      "type": "function"
    },
    {
      "inputs": [
        {
          "internalType": "address",
          "name": "recipient",
          "type": "address"
        },
        {
          "internalType": "uint256",
          "name": "amount",
          "type": "uint256"
        }
      ],
      "name": "transfer",
      "outputs": [
        {
          "internalType": "bool",
          "name": "",
          "type": "bool"
        }
      ],
      "stateMutability": "nonpayable",
      "type": "function"
    },
    {
      "inputs": [
        {
          "internalType": "address",
          "name": "sender",
          "type": "address"
        },
        {
          "internalType": "address",
          "name": "recipient",
          "type": "address"
        },
        {
          "internalType": "uint256",
          "name": "amount",
          "type": "uint256"
        }
      ],
      "name": "transferFrom",
      "outputs": [
        {
          "internalType": "bool",
          "name": "",
          "type": "bool"
        }
      ],
      "stateMutability": "nonpayable",
      "type": "function"
    }
  ],
  "bytecode": "0x60806040523480156200001157600080fd5b506040516200164738038062001647833981810160405260408110156200003757600080fd5b81019080805160405193929190846401000000008211156200005857600080fd5b838201915060208201858111156200006f57600080fd5b82518660018202830111640100000000821117156200008d57600080fd5b8083526020830192505050908051906020019080838360005b83811015620000c3578082015181840152602081019050620000a6565b50505050905090810190601f168015620000f15780820380516001836020036101000a031916815260200191505b50604052602001805160405193929190846401000000008211156200011557600080fd5b838201915060208201858111156200012c57600080fd5b82518660018202830111640100000000821117156200014a57600080fd5b8083526020830192505050908051906020019080838360005b838110156200018057808201518184015260208101905062000163565b50505050905090810190601f168015620001ae5780820380516001836020036101000a031916815260200191505b5060405250505081818160039080519060200190620001cf92919062000497565b508060049080519060200190620001e892919062000497565b506012600560006101000a81548160ff021916908360ff1602179055505050620002233369d3c21bcecceda10000006200022b60201b60201c565b505062000546565b600073ffffffffffffffffffffffffffffffffffffffff168273ffffffffffffffffffffffffffffffffffffffff161415620002cf576040517f08c379a000000000000000000000000000000000000000000000000000000000815260040180806020018281038252601f8152602001807f45524332303a206d696e7420746f20746865207a65726f20616464726573730081525060200191505060405180910390fd5b620002e3600083836200040960201b60201c565b620002ff816002546200040e60201b62000f2d1790919060201c565b6002819055506200035d816000808573ffffffffffffffffffffffffffffffffffffffff1673ffffffffffffffffffffffffffffffffffffffff168152602001908152602001600020546200040e60201b62000f2d1790919060201c565b6000808473ffffffffffffffffffffffffffffffffffffffff1673ffffffffffffffffffffffffffffffffffffffff168152602001908152602001600020819055508173ffffffffffffffffffffffffffffffffffffffff16600073ffffffffffffffffffffffffffffffffffffffff167fddf252ad1be2c89b69c2b068fc378daa952ba7f163c4a11628f55a4df523b3ef836040518082815260200191505060405180910390a35050565b505050565b6000808284019050838110156200048d576040517f08c379a000000000000000000000000000000000000000000000000000000000815260040180806020018281038252601b8152602001807f536166654d6174683a206164646974696f6e206f766572666c6f77000000000081525060200191505060405180910390fd5b8091505092915050565b828054600181600116156101000203166002900490600052602060002090601f016020900481019282601f10620004da57805160ff19168380011785556200050b565b828001600101855582156200050b579182015b828111156200050a578251825591602001919060010190620004ed565b5b5090506200051a91906200051e565b5090565b6200054391905b808211156200053f57600081600090555060010162000525565b5090565b90565b6110f180620005566000396000f3fe608060405234801561001057600080fd5b50600436106100a95760003560e01c80633950935111610071578063395093511461025f57806370a08231146102c557806395d89b411461031d578063a457c2d7146103a0578063a9059cbb14610406578063dd62ed3e1461046c576100a9565b806306fdde03146100ae578063095ea7b31461013157806318160ddd1461019757806323b872dd146101b5578063313ce5671461023b575b600080fd5b6100b66104e4565b6040518080602001828103825283818151815260200191508051906020019080838360005b838110156100f65780820151818401526020810190506100db565b50505050905090810190601f1680156101235780820380516001836020036101000a031916815260200191505b509250505060405180910390f35b61017d6004803603604081101561014757600080fd5b81019080803573ffffffffffffffffffffffffffffffffffffffff16906020019092919080359060200190929190505050610586565b604051808215151515815260200191505060405180910390f35b61019f6105a4565b6040518082815260200191505060405180910390f35b610221600480360360608110156101cb57600080fd5b81019080803573ffffffffffffffffffffffffffffffffffffffff169060200190929190803573ffffffffffffffffffffffffffffffffffffffff169060200190929190803590602001909291905050506105ae565b604051808215151515815260200191505060405180910390f35b610243610687565b604051808260ff1660ff16815260200191505060405180910390f35b6102ab6004803603604081101561027557600080fd5b81019080803573ffffffffffffffffffffffffffffffffffffffff1690602001909291908035906020019092919050505061069e565b604051808215151515815260200191505060405180910390f35b610307600480360360208110156102db57600080fd5b81019080803573ffffffffffffffffffffffffffffffffffffffff169060200190929190505050610751565b6040518082815260200191505060405180910390f35b610325610799565b6040518080602001828103825283818151815260200191508051906020019080838360005b8381101561036557808201518184015260208101905061034a565b50505050905090810190601f1680156103925780820380516001836020036101000a031916815260200191505b509250505060405180910390f35b6103ec600480360360408110156103b657600080fd5b81019080803573ffffffffffffffffffffffffffffffffffffffff1690602001909291908035906020019092919050505061083b565b604051808215151515815260200191505060405180910390f35b6104526004803603604081101561041c57600080fd5b81019080803573ffffffffffffffffffffffffffffffffffffffff16906020019092919080359060200190929190505050610908565b604051808215151515815260200191505060405180910390f35b6104ce6004803603604081101561048257600080fd5b81019080803573ffffffffffffffffffffffffffffffffffffffff169060200190929190803573ffffffffffffffffffffffffffffffffffffffff169060200190929190505050610926565b6040518082815260200191505060405180910390f35b606060038054600181600116156101000203166002900480601f01602080910402602001604051908101604052809291908181526020018280546001816001161561010002031660029004801561057c5780601f106105515761010080835404028352916020019161057c565b820191906000526020600020905b81548152906001019060200180831161055f57829003601f168201915b5050505050905090565b600061059a6105936109ad565b84846109b5565b6001905092915050565b6000600254905090565b60006105bb848484610bac565b61067c846105c76109ad565b6106778560405180606001604052806028815260200161102660289139600160008b73ffffffffffffffffffffffffffffffffffffffff1673ffffffffffffffffffffffffffffffffffffffff168152602001908152602001600020600061062d6109ad565b73ffffffffffffffffffffffffffffffffffffffff1673ffffffffffffffffffffffffffffffffffffffff16815260200190815260200160002054610e6d9092919063ffffffff16565b6109b5565b600190509392505050565b6000600560009054906101000a900460ff16905090565b60006107476106ab6109ad565b8461074285600160006106bc6109ad565b73ffffffffffffffffffffffffffffffffffffffff1673ffffffffffffffffffffffffffffffffffffffff16815260200190815260200160002060008973ffffffffffffffffffffffffffffffffffffffff1673ffffffffffffffffffffffffffffffffffffffff16815260200190815260200160002054610f2d90919063ffffffff16565b6109b5565b6001905092915050565b60008060008373ffffffffffffffffffffffffffffffffffffffff1673ffffffffffffffffffffffffffffffffffffffff168152602001908152602001600020549050919050565b606060048054600181600116156101000203166002900480601f0160208091040260200160405190810160405280929190818152602001828054600181600116156101000203166002900480156108315780601f1061080657610100808354040283529160200191610831565b820191906000526020600020905b81548152906001019060200180831161081457829003601f168201915b5050505050905090565b60006108fe6108486109ad565b846108f98560405180606001604052806025815260200161109760259139600160006108726109ad565b73ffffffffffffffffffffffffffffffffffffffff1673ffffffffffffffffffffffffffffffffffffffff16815260200190815260200160002060008a73ffffffffffffffffffffffffffffffffffffffff1673ffffffffffffffffffffffffffffffffffffffff16815260200190815260200160002054610e6d9092919063ffffffff16565b6109b5565b6001905092915050565b600061091c6109156109ad565b8484610bac565b6001905092915050565b6000600160008473ffffffffffffffffffffffffffffffffffffffff1673ffffffffffffffffffffffffffffffffffffffff16815260200190815260200160002060008373ffffffffffffffffffffffffffffffffffffffff1673ffffffffffffffffffffffffffffffffffffffff16815260200190815260200160002054905092915050565b600033905090565b600073ffffffffffffffffffffffffffffffffffffffff168373ffffffffffffffffffffffffffffffffffffffff161415610a3b576040517f08c379a00000000000000000000000000000000000000000000000000000000081526004018080602001828103825260248152602001806110736024913960400191505060405180910390fd5b600073ffffffffffffffffffffffffffffffffffffffff168273ffffffffffffffffffffffffffffffffffffffff161415610ac1576040517f08c379a0000000000000000000000000000000000000000000000000000000008152600401808060200182810382526022815260200180610fde6022913960400191505060405180910390fd5b80600160008573ffffffffffffffffffffffffffffffffffffffff1673ffffffffffffffffffffffffffffffffffffffff16815260200190815260200160002060008473ffffffffffffffffffffffffffffffffffffffff1673ffffffffffffffffffffffffffffffffffffffff168152602001908152602001600020819055508173ffffffffffffffffffffffffffffffffffffffff168373ffffffffffffffffffffffffffffffffffffffff167f8c5be1e5ebec7d5bd14f71427d1e84f3dd0314c0f7b2291e5b200ac8c7c3b925836040518082815260200191505060405180910390a3505050565b600073ffffffffffffffffffffffffffffffffffffffff168373ffffffffffffffffffffffffffffffffffffffff161415610c32576040517f08c379a000000000000000000000000000000000000000000000000000000000815260040180806020018281038252602581526020018061104e6025913960400191505060405180910390fd5b600073ffffffffffffffffffffffffffffffffffffffff168273ffffffffffffffffffffffffffffffffffffffff161415610cb8576040517f08c379a0000000000000000000000000000000000000000000000000000000008152600401808060200182810382526023815260200180610fbb6023913960400191505060405180910390fd5b610cc3838383610fb5565b610d2e81604051806060016040528060268152602001611000602691396000808773ffffffffffffffffffffffffffffffffffffffff1673ffffffffffffffffffffffffffffffffffffffff16815260200190815260200160002054610e6d9092919063ffffffff16565b6000808573ffffffffffffffffffffffffffffffffffffffff1673ffffffffffffffffffffffffffffffffffffffff16815260200190815260200160002081905550610dc1816000808573ffffffffffffffffffffffffffffffffffffffff1673ffffffffffffffffffffffffffffffffffffffff16815260200190815260200160002054610f2d90919063ffffffff16565b6000808473ffffffffffffffffffffffffffffffffffffffff1673ffffffffffffffffffffffffffffffffffffffff168152602001908152602001600020819055508173ffffffffffffffffffffffffffffffffffffffff168373ffffffffffffffffffffffffffffffffffffffff167fddf252ad1be2c89b69c2b068fc378daa952ba7f163c4a11628f55a4df523b3ef836040518082815260200191505060405180910390a3505050565b6000838311158290610f1a576040517f08c379a00000000000000000000000000000000000000000000000000000000081526004018080602001828103825283818151815260200191508051906020019080838360005b83811015610edf578082015181840152602081019050610ec4565b50505050905090810190601f168015610f0c5780820380516001836020036101000a031916815260200191505b509250505060405180910390fd5b5060008385039050809150509392505050565b600080828401905083811015610fab576040517f08c379a000000000000000000000000000000000000000000000000000000000815260040180806020018281038252601b8152602001807f536166654d6174683a206164646974696f6e206f766572666c6f77000000000081525060200191505060405180910390fd5b8091505092915050565b50505056fe45524332303a207472616e7366657220746f20746865207a65726f206164647265737345524332303a20617070726f766520746f20746865207a65726f206164647265737345524332303a207472616e7366657220616d6f756e7420657863656564732062616c616e636545524332303a207472616e7366657220616d6f756e74206578636565647320616c6c6f77616e636545524332303a207472616e736665722066726f6d20746865207a65726f206164647265737345524332303a20617070726f76652066726f6d20746865207a65726f206164647265737345524332303a2064656372656173656420616c6c6f77616e63652062656c6f77207a65726fa264697066735822122019972890cbda557f42363e071b2faa7c2ab686c75993481363d6d24d97f96ed464736f6c63430006000033",
  "source": "pragma solidity ^0.6.0;\r\n\r\nimport \"@openzeppelin/contracts/token/ERC20/ERC20.sol\";\r\n\r\ncontract WavectToken is ERC20 {\r\n      constructor (string memory name, string memory symbol)\r\n        ERC20(name, symbol)\r\n        public\r\n    {\r\n        //_mint(_msgSender(), 1000000000000000000000000);\r\n        _mint(msg.sender, 1000000000000000000000000);\r\n    }\r\n}\r\n\r\n// contract WavectToken {\r\n//     string  public name = \"Wavect Token\";\r\n//     string  public symbol = \"WACT\";\r\n//     uint256 public totalSupply = 1000000000000000000000000; // 1 million tokens\r\n//     uint8   public decimals = 18;\r\n\r\n//     event Transfer(\r\n//         address indexed _from,\r\n//         address indexed _to,\r\n//         uint256 _value\r\n//     );\r\n\r\n//     event Approval(\r\n//         address indexed _owner,\r\n//         address indexed _spender,\r\n//         uint256 _value\r\n//     );\r\n\r\n//     mapping(address => uint256) public balanceOf;\r\n//     mapping(address => mapping(address => uint256)) public allowance;\r\n\r\n//     constructor() public {\r\n//         balanceOf[msg.sender] = totalSupply;\r\n//     }\r\n\r\n//     function transfer(address _to, uint256 _value) public returns (bool success) {\r\n//         require(balanceOf[msg.sender] >= _value);\r\n//         balanceOf[msg.sender] -= _value;\r\n//         balanceOf[_to] += _value;\r\n//         emit Transfer(msg.sender, _to, _value);\r\n//         return true;\r\n//     }\r\n\r\n//     function approve(address _spender, uint256 _value) public returns (bool success) {\r\n//         allowance[msg.sender][_spender] = _value;\r\n//         emit Approval(msg.sender, _spender, _value);\r\n//         return true;\r\n//     }\r\n\r\n//     function transferFrom(address _from, address _to, uint256 _value) public returns (bool success) {\r\n//         require(_value <= balanceOf[_from]);\r\n//         require(_value <= allowance[_from][msg.sender]);\r\n//         balanceOf[_from] -= _value;\r\n//         balanceOf[_to] += _value;\r\n//         allowance[_from][msg.sender] -= _value;\r\n//         emit Transfer(_from, _to, _value);\r\n//         return true;\r\n//     }\r\n// }\r\n",
  "sourcePath": "C:\\Users\\WSDT\\Desktop\\Wavect.io\\wavect.io\\token\\src\\contracts\\WavectToken.sol",
  "compiler": {
    "name": "solc",
    "version": "0.6.0+commit.26b70077.Emscripten.clang"
  },
  "schemaVersion": "3.3.2",
  "updatedAt": "2020-12-12T11:31:28.342Z",
  "devdoc": {
    "methods": {
      "allowance(address,address)": {
        "details": "See {IERC20-allowance}."
      },
      "approve(address,uint256)": {
        "details": "See {IERC20-approve}.     * Requirements:     * - `spender` cannot be the zero address."
      },
      "balanceOf(address)": {
        "details": "See {IERC20-balanceOf}."
      },
      "decimals()": {
        "details": "Returns the number of decimals used to get its user representation. For example, if `decimals` equals `2`, a balance of `505` tokens should be displayed to a user as `5,05` (`505 / 10 ** 2`).     * Tokens usually opt for a value of 18, imitating the relationship between Ether and Wei. This is the value {ERC20} uses, unless {_setupDecimals} is called.     * NOTE: This information is only used for _display_ purposes: it in no way affects any of the arithmetic of the contract, including {IERC20-balanceOf} and {IERC20-transfer}."
      },
      "decreaseAllowance(address,uint256)": {
        "details": "Atomically decreases the allowance granted to `spender` by the caller.     * This is an alternative to {approve} that can be used as a mitigation for problems described in {IERC20-approve}.     * Emits an {Approval} event indicating the updated allowance.     * Requirements:     * - `spender` cannot be the zero address. - `spender` must have allowance for the caller of at least `subtractedValue`."
      },
      "increaseAllowance(address,uint256)": {
        "details": "Atomically increases the allowance granted to `spender` by the caller.     * This is an alternative to {approve} that can be used as a mitigation for problems described in {IERC20-approve}.     * Emits an {Approval} event indicating the updated allowance.     * Requirements:     * - `spender` cannot be the zero address."
      },
      "name()": {
        "details": "Returns the name of the token."
      },
      "symbol()": {
        "details": "Returns the symbol of the token, usually a shorter version of the name."
      },
      "totalSupply()": {
        "details": "See {IERC20-totalSupply}."
      },
      "transfer(address,uint256)": {
        "details": "See {IERC20-transfer}.     * Requirements:     * - `recipient` cannot be the zero address. - the caller must have a balance of at least `amount`."
      },
      "transferFrom(address,address,uint256)": {
        "details": "See {IERC20-transferFrom}.     * Emits an {Approval} event indicating the updated allowance. This is not required by the EIP. See the note at the beginning of {ERC20}.     * Requirements:     * - `sender` and `recipient` cannot be the zero address. - `sender` must have a balance of at least `amount`. - the caller must have allowance for ``sender``'s tokens of at least `amount`."
      }
    }
  },
  "userdoc": {
    "methods": {}
  }
}